{
  "contractName": "CommunityMotions",
  "abi": [
    {
      "inputs": [
        {
          "internalType": "string",
          "name": "title",
          "type": "string"
        },
        {
          "internalType": "string",
          "name": "description",
          "type": "string"
        },
        {
          "internalType": "uint256",
          "name": "limit",
          "type": "uint256"
        },
        {
          "internalType": "address payable",
          "name": "creator",
          "type": "address"
        }
      ],
      "payable": false,
      "stateMutability": "nonpayable",
      "type": "constructor"
    },
    {
      "constant": true,
      "inputs": [],
      "name": "campaignCreator",
      "outputs": [
        {
          "internalType": "address payable",
          "name": "",
          "type": "address"
        }
      ],
      "payable": false,
      "stateMutability": "view",
      "type": "function"
    },
    {
      "constant": true,
      "inputs": [],
      "name": "campaignDescription",
      "outputs": [
        {
          "internalType": "string",
          "name": "",
          "type": "string"
        }
      ],
      "payable": false,
      "stateMutability": "view",
      "type": "function"
    },
    {
      "constant": true,
      "inputs": [],
      "name": "campaignTitle",
      "outputs": [
        {
          "internalType": "string",
          "name": "",
          "type": "string"
        }
      ],
      "payable": false,
      "stateMutability": "view",
      "type": "function"
    },
    {
      "constant": true,
      "inputs": [
        {
          "internalType": "address",
          "name": "",
          "type": "address"
        }
      ],
      "name": "donations",
      "outputs": [
        {
          "internalType": "uint256",
          "name": "",
          "type": "uint256"
        }
      ],
      "payable": false,
      "stateMutability": "view",
      "type": "function"
    },
    {
      "constant": true,
      "inputs": [
        {
          "internalType": "uint256",
          "name": "",
          "type": "uint256"
        }
      ],
      "name": "donors",
      "outputs": [
        {
          "internalType": "address payable",
          "name": "",
          "type": "address"
        }
      ],
      "payable": false,
      "stateMutability": "view",
      "type": "function"
    },
    {
      "constant": true,
      "inputs": [],
      "name": "limitAmount",
      "outputs": [
        {
          "internalType": "uint256",
          "name": "",
          "type": "uint256"
        }
      ],
      "payable": false,
      "stateMutability": "view",
      "type": "function"
    },
    {
      "constant": false,
      "inputs": [],
      "name": "donate",
      "outputs": [],
      "payable": true,
      "stateMutability": "payable",
      "type": "function"
    },
    {
      "constant": true,
      "inputs": [],
      "name": "totalDonated",
      "outputs": [
        {
          "internalType": "uint256",
          "name": "",
          "type": "uint256"
        }
      ],
      "payable": false,
      "stateMutability": "view",
      "type": "function"
    },
    {
      "constant": true,
      "inputs": [],
      "name": "getAllDonors",
      "outputs": [
        {
          "internalType": "address payable[]",
          "name": "",
          "type": "address[]"
        }
      ],
      "payable": false,
      "stateMutability": "view",
      "type": "function"
    }
  ],
  "bytecode": "0x608060405234801561001057600080fd5b50604051610b39380380610b398339818101604052608081101561003357600080fd5b810190808051604051939291908464010000000082111561005357600080fd5b8382019150602082018581111561006957600080fd5b825186600182028301116401000000008211171561008657600080fd5b8083526020830192505050908051906020019080838360005b838110156100ba57808201518184015260208101905061009f565b50505050905090810190601f1680156100e75780820380516001836020036101000a031916815260200191505b506040526020018051604051939291908464010000000082111561010a57600080fd5b8382019150602082018581111561012057600080fd5b825186600182028301116401000000008211171561013d57600080fd5b8083526020830192505050908051906020019080838360005b83811015610171578082015181840152602081019050610156565b50505050905090810190601f16801561019e5780820380516001836020036101000a031916815260200191505b506040526020018051906020019092919080519060200190929190505050806000806101000a81548173ffffffffffffffffffffffffffffffffffffffff021916908373ffffffffffffffffffffffffffffffffffffffff160217905550826001908051906020019061021292919061023a565b50836002908051906020019061022992919061023a565b5081600381905550505050506102df565b828054600181600116156101000203166002900490600052602060002090601f016020900481019282601f1061027b57805160ff19168380011785556102a9565b828001600101855582156102a9579182015b828111156102a857825182559160200191906001019061028d565b5b5090506102b691906102ba565b5090565b6102dc91905b808211156102d85760008160009055506001016102c0565b5090565b90565b61084b806102ee6000396000f3fe6080604052600436106100855760003560e01c806378abafaf1161005957806378abafaf14610217578063835a61721461024257806398e36b04146102d2578063cc6cb19a1461033e578063ed88c68e146103a357610085565b8062b370441461008a578063110842cb146100b55780634abfa1631461014557806376daefd0146101c0575b600080fd5b34801561009657600080fd5b5061009f6103ad565b6040518082815260200191505060405180910390f35b3480156100c157600080fd5b506100ca610457565b6040518080602001828103825283818151815260200191508051906020019080838360005b8381101561010a5780820151818401526020810190506100ef565b50505050905090810190601f1680156101375780820380516001836020036101000a031916815260200191505b509250505060405180910390f35b34801561015157600080fd5b5061017e6004803603602081101561016857600080fd5b81019080803590602001909291905050506104f5565b604051808273ffffffffffffffffffffffffffffffffffffffff1673ffffffffffffffffffffffffffffffffffffffff16815260200191505060405180910390f35b3480156101cc57600080fd5b506101d5610531565b604051808273ffffffffffffffffffffffffffffffffffffffff1673ffffffffffffffffffffffffffffffffffffffff16815260200191505060405180910390f35b34801561022357600080fd5b5061022c610556565b6040518082815260200191505060405180910390f35b34801561024e57600080fd5b5061025761055c565b6040518080602001828103825283818151815260200191508051906020019080838360005b8381101561029757808201518184015260208101905061027c565b50505050905090810190601f1680156102c45780820380516001836020036101000a031916815260200191505b509250505060405180910390f35b3480156102de57600080fd5b506102e76105fa565b6040518080602001828103825283818151815260200191508051906020019060200280838360005b8381101561032a57808201518184015260208101905061030f565b505050509050019250505060405180910390f35b34801561034a57600080fd5b5061038d6004803603602081101561036157600080fd5b81019080803573ffffffffffffffffffffffffffffffffffffffff169060200190929190505050610688565b6040518082815260200191505060405180910390f35b6103ab6106a0565b005b6000806000905060008090505b60048054905081101561044f5760056000600483815481106103d857fe5b9060005260206000200160009054906101000a900473ffffffffffffffffffffffffffffffffffffffff1673ffffffffffffffffffffffffffffffffffffffff1673ffffffffffffffffffffffffffffffffffffffff168152602001908152602001600020548201915080806001019150506103ba565b508091505090565b60018054600181600116156101000203166002900480601f0160208091040260200160405190810160405280929190818152602001828054600181600116156101000203166002900480156104ed5780601f106104c2576101008083540402835291602001916104ed565b820191906000526020600020905b8154815290600101906020018083116104d057829003601f168201915b505050505081565b6004818154811061050257fe5b906000526020600020016000915054906101000a900473ffffffffffffffffffffffffffffffffffffffff1681565b6000809054906101000a900473ffffffffffffffffffffffffffffffffffffffff1681565b60035481565b60028054600181600116156101000203166002900480601f0160208091040260200160405190810160405280929190818152602001828054600181600116156101000203166002900480156105f25780601f106105c7576101008083540402835291602001916105f2565b820191906000526020600020905b8154815290600101906020018083116105d557829003601f168201915b505050505081565b6060600480548060200260200160405190810160405280929190818152602001828054801561067e57602002820191906000526020600020905b8160009054906101000a900473ffffffffffffffffffffffffffffffffffffffff1673ffffffffffffffffffffffffffffffffffffffff1681526020019060010190808311610634575b5050505050905090565b60056020528060005260406000206000915090505481565b600354341015610718576040517f08c379a000000000000000000000000000000000000000000000000000000000815260040180806020018281038252601d8152602001807f496e73756666696369656e7420646f6e6174696f6e20616d6f756e742e00000081525060200191505060405180910390fd5b6000600560003373ffffffffffffffffffffffffffffffffffffffff1673ffffffffffffffffffffffffffffffffffffffff1681526020019081526020016000205414156107c75760043390806001815401808255809150509060018203906000526020600020016000909192909190916101000a81548173ffffffffffffffffffffffffffffffffffffffff021916908373ffffffffffffffffffffffffffffffffffffffff160217905550505b34600560003373ffffffffffffffffffffffffffffffffffffffff1673ffffffffffffffffffffffffffffffffffffffff1681526020019081526020016000206000828254019250508190555056fea265627a7a72315820d53048a4a79b6b19d7b7c6a488a686cdb49f3dc0698a9f0e325970248c063b1864736f6c63430005100032",
  "source": "// SPDX-License-Identifier: UNLICENSED\r\n\r\npragma solidity 0.5.16;\r\n\r\ncontract CommunityMotions {\r\n     address payable public campaignCreator;\r\n     string public campaignDescription;\r\n     string public campaignTitle;\r\n     uint public limitAmount;\r\n     \r\n     address payable[] public donors;\r\n     mapping(address => uint) public donations;\r\n     \r\n     constructor(string memory title, string memory description, uint limit, address payable creator) public {\r\n         campaignCreator = creator;\r\n         campaignDescription = description;\r\n         campaignTitle = title;\r\n         limitAmount = limit;\r\n     }\r\n     \r\n     function donate() public payable isLimitValid {\r\n         if(donations[msg.sender] == 0)\r\n         {\r\n             donors.push(msg.sender);\r\n         }\r\n         donations[msg.sender] += msg.value;\r\n     }\r\n     \r\n     function totalDonated() view public returns(uint) {\r\n         uint donated = 0;\r\n         for(uint i = 0; i< donors.length; i++)\r\n         {\r\n             donated += donations[donors[i]];\r\n         }\r\n         return donated;\r\n     }\r\n     \r\n     modifier isLimitValid() {\r\n        require(msg.value >= limitAmount, \"Insufficient donation amount.\");\r\n        _;\r\n    }\r\n\r\n    function getAllDonors() public view returns(address payable[] memory){\r\n        return donors;\r\n    }\r\n}",
  "sourcePath": "C:\\Users\\dragi\\OneDrive\\Desktop\\Master\\Blokcein tehnologije\\Blokcein projekti\\Pokusaj1\\motions-dapp\\src\\ethereum\\contracts\\CommunityMotions.sol",
  "compiler": {
    "name": "solc",
    "version": "0.5.16+commit.9c3226ce.Emscripten.clang"
  },
  "schemaVersion": "3.4.6",
  "updatedAt": "2022-06-29T22:29:48.046Z",
  "devdoc": {
    "methods": {}
  },
  "userdoc": {
    "methods": {}
  }
}