{
  "contractName": "Motions",
  "abi": [
    {
      "constant": true,
      "inputs": [
        {
          "internalType": "address",
          "name": "",
          "type": "address"
        },
        {
          "internalType": "address",
          "name": "",
          "type": "address"
        },
        {
          "internalType": "address",
          "name": "",
          "type": "address"
        }
      ],
      "name": "hasVoted",
      "outputs": [
        {
          "internalType": "bool",
          "name": "",
          "type": "bool"
        }
      ],
      "payable": false,
      "stateMutability": "view",
      "type": "function"
    },
    {
      "constant": true,
      "inputs": [
        {
          "internalType": "uint256",
          "name": "",
          "type": "uint256"
        }
      ],
      "name": "requests",
      "outputs": [
        {
          "internalType": "address",
          "name": "",
          "type": "address"
        }
      ],
      "payable": false,
      "stateMutability": "view",
      "type": "function"
    },
    {
      "constant": true,
      "inputs": [
        {
          "internalType": "address",
          "name": "",
          "type": "address"
        }
      ],
      "name": "votes",
      "outputs": [
        {
          "internalType": "bool",
          "name": "active",
          "type": "bool"
        },
        {
          "internalType": "uint256",
          "name": "numberOfTimesApproved",
          "type": "uint256"
        },
        {
          "internalType": "uint256",
          "name": "numberOfTimesVoted",
          "type": "uint256"
        }
      ],
      "payable": false,
      "stateMutability": "view",
      "type": "function"
    },
    {
      "constant": false,
      "inputs": [
        {
          "internalType": "string",
          "name": "title",
          "type": "string"
        },
        {
          "internalType": "string",
          "name": "description",
          "type": "string"
        },
        {
          "internalType": "uint256",
          "name": "limit",
          "type": "uint256"
        }
      ],
      "name": "createRequests",
      "outputs": [],
      "payable": false,
      "stateMutability": "nonpayable",
      "type": "function"
    },
    {
      "constant": true,
      "inputs": [],
      "name": "getRequests",
      "outputs": [
        {
          "internalType": "address[]",
          "name": "",
          "type": "address[]"
        }
      ],
      "payable": false,
      "stateMutability": "view",
      "type": "function"
    },
    {
      "constant": true,
      "inputs": [],
      "name": "getTotalDonationsForRequests",
      "outputs": [
        {
          "internalType": "uint256",
          "name": "",
          "type": "uint256"
        }
      ],
      "payable": false,
      "stateMutability": "view",
      "type": "function"
    },
    {
      "constant": true,
      "inputs": [
        {
          "internalType": "address",
          "name": "creator",
          "type": "address"
        },
        {
          "internalType": "address",
          "name": "request",
          "type": "address"
        }
      ],
      "name": "canVote",
      "outputs": [
        {
          "internalType": "bool",
          "name": "",
          "type": "bool"
        }
      ],
      "payable": false,
      "stateMutability": "view",
      "type": "function"
    },
    {
      "constant": false,
      "inputs": [
        {
          "internalType": "address",
          "name": "creator",
          "type": "address"
        },
        {
          "internalType": "address",
          "name": "request",
          "type": "address"
        },
        {
          "internalType": "bool",
          "name": "isApproved",
          "type": "bool"
        }
      ],
      "name": "vote",
      "outputs": [],
      "payable": false,
      "stateMutability": "nonpayable",
      "type": "function"
    },
    {
      "constant": false,
      "inputs": [
        {
          "internalType": "uint256",
          "name": "amount",
          "type": "uint256"
        },
        {
          "internalType": "address",
          "name": "request",
          "type": "address"
        }
      ],
      "name": "withdraw",
      "outputs": [],
      "payable": false,
      "stateMutability": "nonpayable",
      "type": "function"
    }
  ],
  "bytecode": "0x608060405234801561001057600080fd5b50611d4d806100206000396000f3fe60806040523480156200001157600080fd5b50600436106200009f5760003560e01c806384043030116200006f5780638404303014620002585780638813ce121462000278578063a44f83e514620002db578063c570585e146200037a578063d8bff5a514620004df576200009f565b8062f714ce14620000a4578063128d871114620000f55780634873d68d146200016857806381d12c5814620001e7575b600080fd5b620000f360048036036040811015620000bc57600080fd5b8101908080359060200190929190803573ffffffffffffffffffffffffffffffffffffffff1690602001909291905050506200054c565b005b62000166600480360360608110156200010d57600080fd5b81019080803573ffffffffffffffffffffffffffffffffffffffff169060200190929190803573ffffffffffffffffffffffffffffffffffffffff16906020019092919080351515906020019092919050505062000993565b005b620001cd600480360360408110156200018057600080fd5b81019080803573ffffffffffffffffffffffffffffffffffffffff169060200190929190803573ffffffffffffffffffffffffffffffffffffffff16906020019092919050505062000b92565b604051808215151515815260200191505060405180910390f35b6200021660048036036020811015620001ff57600080fd5b810190808035906020019092919050505062000e91565b604051808273ffffffffffffffffffffffffffffffffffffffff1673ffffffffffffffffffffffffffffffffffffffff16815260200191505060405180910390f35b6200026262000ece565b6040518082815260200191505060405180910390f35b6200028262000fbe565b6040518080602001828103825283818151815260200191508051906020019060200280838360005b83811015620002c7578082015181840152602081019050620002aa565b505050509050019250505060405180910390f35b6200036060048036036060811015620002f357600080fd5b81019080803573ffffffffffffffffffffffffffffffffffffffff169060200190929190803573ffffffffffffffffffffffffffffffffffffffff169060200190929190803573ffffffffffffffffffffffffffffffffffffffff1690602001909291905050506200104e565b604051808215151515815260200191505060405180910390f35b620004dd600480360360608110156200039257600080fd5b8101908080359060200190640100000000811115620003b057600080fd5b820183602082011115620003c357600080fd5b80359060200191846001830284011164010000000083111715620003e657600080fd5b91908080601f016020809104026020016040519081016040528093929190818152602001838380828437600081840152601f19601f820116905080830192505050505050509192919290803590602001906401000000008111156200044a57600080fd5b8201836020820111156200045d57600080fd5b803590602001918460018302840111640100000000831117156200048057600080fd5b91908080601f016020809104026020016040519081016040528093929190818152602001838380828437600081840152601f19601f820116905080830192505050505050509192919290803590602001909291905050506200108a565b005b6200052460048036036020811015620004f757600080fd5b81019080803573ffffffffffffffffffffffffffffffffffffffff1690602001909291905050506200129f565b6040518084151515158152602001838152602001828152602001935050505060405180910390f35b8073ffffffffffffffffffffffffffffffffffffffff1631821115620005da576040517f08c379a000000000000000000000000000000000000000000000000000000000815260040180806020018281038252601b8152602001807f5472616e7366657220616d6f756e7420697320696e76616c69642e000000000081525060200191505060405180910390fd5b8073ffffffffffffffffffffffffffffffffffffffff166376daefd06040518163ffffffff1660e01b815260040160206040518083038186803b1580156200062157600080fd5b505afa15801562000636573d6000803e3d6000fd5b505050506040513d60208110156200064d57600080fd5b810190808051906020019092919050505073ffffffffffffffffffffffffffffffffffffffff163373ffffffffffffffffffffffffffffffffffffffff1614620006ff576040517f08c379a000000000000000000000000000000000000000000000000000000000815260040180806020018281038252601e8152602001807f5769746864726177696e672066756e6473206e6f7420616c6c6f7765642e000081525060200191505060405180910390fd5b6000808273ffffffffffffffffffffffffffffffffffffffff1673ffffffffffffffffffffffffffffffffffffffff16815260200190815260200160002060000160009054906101000a900460ff16620007c1576040517f08c379a00000000000000000000000000000000000000000000000000000000081526004018080602001828103825260178152602001807f5265717565737420646f65736e2774206578697374732e00000000000000000081525060200191505060405180910390fd5b60026000808373ffffffffffffffffffffffffffffffffffffffff1673ffffffffffffffffffffffffffffffffffffffff16815260200190815260200160002060020154816200080d57fe5b046000808373ffffffffffffffffffffffffffffffffffffffff1673ffffffffffffffffffffffffffffffffffffffff1681526020019081526020016000206001015411620008c4576040517f08c379a00000000000000000000000000000000000000000000000000000000081526004018080602001828103825260178152602001807f52657175657374206973206e6f7420617070726f76656400000000000000000081525060200191505060405180910390fd5b8073ffffffffffffffffffffffffffffffffffffffff166376daefd06040518163ffffffff1660e01b815260040160206040518083038186803b1580156200090b57600080fd5b505afa15801562000920573d6000803e3d6000fd5b505050506040513d60208110156200093757600080fd5b810190808051906020019092919050505073ffffffffffffffffffffffffffffffffffffffff166108fc839081150290604051600060405180830381858888f193505050501580156200098e573d6000803e3d6000fd5b505050565b6200099f838362000b92565b62000a12576040517f08c379a000000000000000000000000000000000000000000000000000000000815260040180806020018281038252600f8152602001807f596f752063616e277420766f74652e000000000000000000000000000000000081525060200191505060405180910390fd5b60018060008573ffffffffffffffffffffffffffffffffffffffff1673ffffffffffffffffffffffffffffffffffffffff16815260200190815260200160002060008473ffffffffffffffffffffffffffffffffffffffff1673ffffffffffffffffffffffffffffffffffffffff16815260200190815260200160002060003373ffffffffffffffffffffffffffffffffffffffff1673ffffffffffffffffffffffffffffffffffffffff16815260200190815260200160002060006101000a81548160ff021916908315150217905550801562000b3c576000808373ffffffffffffffffffffffffffffffffffffffff1673ffffffffffffffffffffffffffffffffffffffff168152602001908152602001600020600101600081548092919060010191905055505b6000808373ffffffffffffffffffffffffffffffffffffffff1673ffffffffffffffffffffffffffffffffffffffff16815260200190815260200160002060020160008154809291906001019190505550505050565b60008273ffffffffffffffffffffffffffffffffffffffff163373ffffffffffffffffffffffffffffffffffffffff16141562000bd3576000905062000e8b565b6000808373ffffffffffffffffffffffffffffffffffffffff1673ffffffffffffffffffffffffffffffffffffffff16815260200190815260200160002060000160009054906101000a900460ff1662000c31576000905062000e8b565b8273ffffffffffffffffffffffffffffffffffffffff168273ffffffffffffffffffffffffffffffffffffffff166376daefd06040518163ffffffff1660e01b815260040160206040518083038186803b15801562000c8f57600080fd5b505afa15801562000ca4573d6000803e3d6000fd5b505050506040513d602081101562000cbb57600080fd5b810190808051906020019092919050505073ffffffffffffffffffffffffffffffffffffffff161462000cf2576000905062000e8b565b60008273ffffffffffffffffffffffffffffffffffffffff1663cc6cb19a336040518263ffffffff1660e01b8152600401808273ffffffffffffffffffffffffffffffffffffffff1673ffffffffffffffffffffffffffffffffffffffff16815260200191505060206040518083038186803b15801562000d7257600080fd5b505afa15801562000d87573d6000803e3d6000fd5b505050506040513d602081101562000d9e57600080fd5b8101908080519060200190929190505050141562000dc0576000905062000e8b565b600160008473ffffffffffffffffffffffffffffffffffffffff1673ffffffffffffffffffffffffffffffffffffffff16815260200190815260200160002060008373ffffffffffffffffffffffffffffffffffffffff1673ffffffffffffffffffffffffffffffffffffffff16815260200190815260200160002060003373ffffffffffffffffffffffffffffffffffffffff1673ffffffffffffffffffffffffffffffffffffffff16815260200190815260200160002060009054906101000a900460ff161590505b92915050565b6002818154811062000e9f57fe5b906000526020600020016000915054906101000a900473ffffffffffffffffffffffffffffffffffffffff1681565b6000806000905060008090505b60028054905081101562000fb6576002818154811062000ef757fe5b9060005260206000200160009054906101000a900473ffffffffffffffffffffffffffffffffffffffff1673ffffffffffffffffffffffffffffffffffffffff1662b370446040518163ffffffff1660e01b815260040160206040518083038186803b15801562000f6757600080fd5b505afa15801562000f7c573d6000803e3d6000fd5b505050506040513d602081101562000f9357600080fd5b810190808051906020019092919050505082019150808060010191505062000edb565b508091505090565b606060028054806020026020016040519081016040528092919081815260200182805480156200104457602002820191906000526020600020905b8160009054906101000a900473ffffffffffffffffffffffffffffffffffffffff1673ffffffffffffffffffffffffffffffffffffffff168152602001906001019080831162000ff9575b5050505050905090565b6001602052826000526040600020602052816000526040600020602052806000526040600020600092509250509054906101000a900460ff1681565b6000838383336040516200109e90620012d6565b8080602001806020018581526020018473ffffffffffffffffffffffffffffffffffffffff1673ffffffffffffffffffffffffffffffffffffffff168152602001838103835287818151815260200191508051906020019080838360005b8381101562001119578082015181840152602081019050620010fc565b50505050905090810190601f168015620011475780820380516001836020036101000a031916815260200191505b50838103825286818151815260200191508051906020019080838360005b838110156200118257808201518184015260208101905062001165565b50505050905090810190601f168015620011b05780820380516001836020036101000a031916815260200191505b509650505050505050604051809103906000f080158015620011d6573d6000803e3d6000fd5b50905060028190806001815401808255809150509060018203906000526020600020016000909192909190916101000a81548173ffffffffffffffffffffffffffffffffffffffff021916908373ffffffffffffffffffffffffffffffffffffffff1602179055505060016000808373ffffffffffffffffffffffffffffffffffffffff1673ffffffffffffffffffffffffffffffffffffffff16815260200190815260200160002060000160006101000a81548160ff02191690831515021790555050505050565b60006020528060005260406000206000915090508060000160009054906101000a900460ff16908060010154908060020154905083565b610a3480620012e58339019056fe608060405234801561001057600080fd5b50604051610a34380380610a348339818101604052608081101561003357600080fd5b810190808051604051939291908464010000000082111561005357600080fd5b8382019150602082018581111561006957600080fd5b825186600182028301116401000000008211171561008657600080fd5b8083526020830192505050908051906020019080838360005b838110156100ba57808201518184015260208101905061009f565b50505050905090810190601f1680156100e75780820380516001836020036101000a031916815260200191505b506040526020018051604051939291908464010000000082111561010a57600080fd5b8382019150602082018581111561012057600080fd5b825186600182028301116401000000008211171561013d57600080fd5b8083526020830192505050908051906020019080838360005b83811015610171578082015181840152602081019050610156565b50505050905090810190601f16801561019e5780820380516001836020036101000a031916815260200191505b506040526020018051906020019092919080519060200190929190505050806000806101000a81548173ffffffffffffffffffffffffffffffffffffffff021916908373ffffffffffffffffffffffffffffffffffffffff160217905550826001908051906020019061021292919061023a565b50836002908051906020019061022992919061023a565b5081600381905550505050506102df565b828054600181600116156101000203166002900490600052602060002090601f016020900481019282601f1061027b57805160ff19168380011785556102a9565b828001600101855582156102a9579182015b828111156102a857825182559160200191906001019061028d565b5b5090506102b691906102ba565b5090565b6102dc91905b808211156102d85760008160009055506001016102c0565b5090565b90565b610746806102ee6000396000f3fe60806040526004361061007a5760003560e01c806378abafaf1161004e57806378abafaf1461020c578063835a617214610237578063cc6cb19a146102c7578063ed88c68e1461032c5761007a565b8062b370441461007f578063110842cb146100aa5780634abfa1631461013a57806376daefd0146101b5575b600080fd5b34801561008b57600080fd5b50610094610336565b6040518082815260200191505060405180910390f35b3480156100b657600080fd5b506100bf6103e0565b6040518080602001828103825283818151815260200191508051906020019080838360005b838110156100ff5780820151818401526020810190506100e4565b50505050905090810190601f16801561012c5780820380516001836020036101000a031916815260200191505b509250505060405180910390f35b34801561014657600080fd5b506101736004803603602081101561015d57600080fd5b810190808035906020019092919050505061047e565b604051808273ffffffffffffffffffffffffffffffffffffffff1673ffffffffffffffffffffffffffffffffffffffff16815260200191505060405180910390f35b3480156101c157600080fd5b506101ca6104ba565b604051808273ffffffffffffffffffffffffffffffffffffffff1673ffffffffffffffffffffffffffffffffffffffff16815260200191505060405180910390f35b34801561021857600080fd5b506102216104df565b6040518082815260200191505060405180910390f35b34801561024357600080fd5b5061024c6104e5565b6040518080602001828103825283818151815260200191508051906020019080838360005b8381101561028c578082015181840152602081019050610271565b50505050905090810190601f1680156102b95780820380516001836020036101000a031916815260200191505b509250505060405180910390f35b3480156102d357600080fd5b50610316600480360360208110156102ea57600080fd5b81019080803573ffffffffffffffffffffffffffffffffffffffff169060200190929190505050610583565b6040518082815260200191505060405180910390f35b61033461059b565b005b6000806000905060008090505b6004805490508110156103d857600560006004838154811061036157fe5b9060005260206000200160009054906101000a900473ffffffffffffffffffffffffffffffffffffffff1673ffffffffffffffffffffffffffffffffffffffff1673ffffffffffffffffffffffffffffffffffffffff16815260200190815260200160002054820191508080600101915050610343565b508091505090565b60018054600181600116156101000203166002900480601f0160208091040260200160405190810160405280929190818152602001828054600181600116156101000203166002900480156104765780601f1061044b57610100808354040283529160200191610476565b820191906000526020600020905b81548152906001019060200180831161045957829003601f168201915b505050505081565b6004818154811061048b57fe5b906000526020600020016000915054906101000a900473ffffffffffffffffffffffffffffffffffffffff1681565b6000809054906101000a900473ffffffffffffffffffffffffffffffffffffffff1681565b60035481565b60028054600181600116156101000203166002900480601f01602080910402602001604051908101604052809291908181526020018280546001816001161561010002031660029004801561057b5780601f106105505761010080835404028352916020019161057b565b820191906000526020600020905b81548152906001019060200180831161055e57829003601f168201915b505050505081565b60056020528060005260406000206000915090505481565b600354341015610613576040517f08c379a000000000000000000000000000000000000000000000000000000000815260040180806020018281038252601d8152602001807f496e73756666696369656e7420646f6e6174696f6e20616d6f756e742e00000081525060200191505060405180910390fd5b6000600560003373ffffffffffffffffffffffffffffffffffffffff1673ffffffffffffffffffffffffffffffffffffffff1681526020019081526020016000205414156106c25760043390806001815401808255809150509060018203906000526020600020016000909192909190916101000a81548173ffffffffffffffffffffffffffffffffffffffff021916908373ffffffffffffffffffffffffffffffffffffffff160217905550505b34600560003373ffffffffffffffffffffffffffffffffffffffff1673ffffffffffffffffffffffffffffffffffffffff1681526020019081526020016000206000828254019250508190555056fea265627a7a72315820b88947b9b93ac86d30d5fd0ed101e13337bcbf3e72b4bf0009712a630e1bee7864736f6c63430005100032a265627a7a72315820b5068100184682f0bc35dac07708637980ef8f6409cae55b381db573fc05fc9564736f6c63430005100032",
  "source": "pragma solidity 0.5.16;\r\n\r\nimport \"./CommunityMotions.sol\";\r\n\r\ncontract Motions{\r\n    struct Request{\r\n        bool active;\r\n        uint numberOfTimesApproved;\r\n        uint numberOfTimesVoted;\r\n    }\r\n    \r\n    mapping(address => Request) public votes;\r\n    mapping(address => mapping(address => mapping(address => bool))) public hasVoted;\r\n    address[] public requests;\r\n    \r\n    function createRequests(string memory title, string memory description, uint limit) public {\r\n        CommunityMotions motion = new CommunityMotions(title, description, limit, msg.sender);\r\n        requests.push(address(motion));\r\n        votes[address(motion)].active = true;\r\n    }\r\n\r\n    function getRequests() public view returns(address[] memory) {\r\n        return requests;\r\n    }\r\n    \r\n    function getTotalDonationsForRequests() public view returns(uint) {\r\n        uint total = 0;\r\n        for(uint i = 0; i< requests.length; i++){\r\n            total += CommunityMotions(requests[i]).totalDonated();\r\n        }\r\n        return total;\r\n    }\r\n    \r\n    function canVote(address creator, address request) public view returns(bool) {\r\n        if(msg.sender == creator)\r\n            return false;\r\n        if(!votes[request].active)\r\n            return false;\r\n        if(CommunityMotions(request).campaignCreator() != creator)\r\n            return false;\r\n        if(CommunityMotions(request).donations(msg.sender) == 0)\r\n            return false;\r\n        return !hasVoted[creator][request][msg.sender];\r\n    }\r\n    \r\n    function vote(address creator, address request, bool isApproved) public {\r\n        require(canVote(creator, request), \"You can't vote.\");\r\n        hasVoted[creator][request][msg.sender] = true;\r\n        if(isApproved){\r\n            votes[request].numberOfTimesApproved++;\r\n        }\r\n        votes[request].numberOfTimesVoted++;\r\n    }\r\n    \r\n    function withdraw(uint amount, address request) public  {\r\n         require(amount <= request.balance, \"Transfer amount is invalid.\");\r\n         require(msg.sender == CommunityMotions(request).campaignCreator(), \"Withdrawing funds not allowed.\");\r\n         require(votes[request].active, \"Request doesn't exists.\");\r\n         require(votes[request].numberOfTimesApproved > (votes[request].numberOfTimesVoted/2), \"Request is not approved\");\r\n         \r\n         CommunityMotions(request).campaignCreator().transfer(amount);\r\n    }\r\n}",
  "sourcePath": "C:\\Users\\dragi\\OneDrive\\Desktop\\Master\\Blokcein tehnologije\\Blokcein projekti\\Pokusaj1\\contracts\\Motions.sol",
  "compiler": {
    "name": "solc",
    "version": "0.5.16+commit.9c3226ce.Emscripten.clang"
  },
  "schemaVersion": "3.4.6",
  "updatedAt": "2022-03-20T13:22:11.273Z",
  "networkType": "ethereum",
  "devdoc": {
    "methods": {}
  },
  "userdoc": {
    "methods": {}
  }
}